{
  "_format": "hh-sol-artifact-1",
  "contractName": "DomainNameAuthentication",
  "sourceName": "contracts/DomainNameAuthentication.sol",
  "abi": [
    {
      "inputs": [],
      "stateMutability": "nonpayable",
      "type": "constructor"
    },
    {
      "anonymous": false,
      "inputs": [
        {
          "indexed": true,
          "internalType": "address",
          "name": "owner",
          "type": "address"
        },
        {
          "indexed": true,
          "internalType": "string",
          "name": "domainName",
          "type": "string"
        }
      ],
      "name": "DomainRegistered",
      "type": "event"
    },
    {
      "anonymous": false,
      "inputs": [
        {
          "indexed": true,
          "internalType": "address",
          "name": "owner",
          "type": "address"
        },
        {
          "indexed": true,
          "internalType": "string",
          "name": "domainName",
          "type": "string"
        }
      ],
      "name": "DomainUpdated",
      "type": "event"
    },
    {
      "inputs": [
        {
          "internalType": "string",
          "name": "domainName",
          "type": "string"
        },
        {
          "internalType": "address",
          "name": "domainAddress",
          "type": "address"
        }
      ],
      "name": "authenticate",
      "outputs": [],
      "stateMutability": "nonpayable",
      "type": "function"
    },
    {
      "inputs": [],
      "name": "contractOwner",
      "outputs": [
        {
          "internalType": "address",
          "name": "",
          "type": "address"
        }
      ],
      "stateMutability": "view",
      "type": "function"
    },
    {
      "inputs": [
        {
          "internalType": "string",
          "name": "",
          "type": "string"
        }
      ],
      "name": "domainToAddress",
      "outputs": [
        {
          "internalType": "address",
          "name": "",
          "type": "address"
        }
      ],
      "stateMutability": "view",
      "type": "function"
    },
    {
      "inputs": [
        {
          "internalType": "address",
          "name": "",
          "type": "address"
        }
      ],
      "name": "domains",
      "outputs": [
        {
          "internalType": "string",
          "name": "domainName",
          "type": "string"
        },
        {
          "internalType": "address",
          "name": "owner",
          "type": "address"
        },
        {
          "internalType": "bool",
          "name": "exists",
          "type": "bool"
        }
      ],
      "stateMutability": "view",
      "type": "function"
    },
    {
      "inputs": [
        {
          "internalType": "address",
          "name": "owner",
          "type": "address"
        }
      ],
      "name": "getDomainName",
      "outputs": [
        {
          "internalType": "string",
          "name": "",
          "type": "string"
        }
      ],
      "stateMutability": "view",
      "type": "function"
    },
    {
      "inputs": [],
      "name": "getDomainOwner",
      "outputs": [
        {
          "internalType": "address",
          "name": "",
          "type": "address"
        }
      ],
      "stateMutability": "view",
      "type": "function"
    },
    {
      "inputs": [
        {
          "internalType": "string",
          "name": "domainName",
          "type": "string"
        },
        {
          "internalType": "bytes",
          "name": "proof",
          "type": "bytes"
        }
      ],
      "name": "registerDomain",
      "outputs": [],
      "stateMutability": "nonpayable",
      "type": "function"
    },
    {
      "inputs": [
        {
          "internalType": "string",
          "name": "domainName",
          "type": "string"
        }
      ],
      "name": "resolveDomain",
      "outputs": [
        {
          "internalType": "address",
          "name": "",
          "type": "address"
        }
      ],
      "stateMutability": "view",
      "type": "function"
    },
    {
      "inputs": [
        {
          "internalType": "string",
          "name": "domainName",
          "type": "string"
        },
        {
          "internalType": "bytes",
          "name": "proof",
          "type": "bytes"
        }
      ],
      "name": "updateDomain",
      "outputs": [],
      "stateMutability": "nonpayable",
      "type": "function"
    }
  ],
  "bytecode": "0x608060405234801561001057600080fd5b5033600160006101000a81548173ffffffffffffffffffffffffffffffffffffffff021916908373ffffffffffffffffffffffffffffffffffffffff1602179055506113e4806100616000396000f3fe608060405234801561001057600080fd5b50600436106100935760003560e01c80638b3852a3116100665780638b3852a314610144578063a25db86414610160578063a917d92d1461017c578063ce606ee01461019a578063e2ffea6e146101b857610093565b8063105bcb5714610098578063364460f3146100c8578063582d1456146100f85780637e3638b514610114575b600080fd5b6100b260048036038101906100ad9190610d47565b6101ea565b6040516100bf9190611073565b60405180910390f35b6100e260048036038101906100dd9190610d47565b610233565b6040516100ef9190611073565b60405180910390f35b610112600480360381019061010d9190610ddc565b610328565b005b61012e60048036038101906101299190610d1e565b61058a565b60405161013b919061108e565b60405180910390f35b61015e60048036038101906101599190610d88565b6106eb565b005b61017a60048036038101906101759190610ddc565b6107dc565b005b61018461099a565b6040516101919190611073565b60405180910390f35b6101a2610a91565b6040516101af9190611073565b60405180910390f35b6101d260048036038101906101cd9190610d1e565b610ab7565b6040516101e1939291906110e0565b60405180910390f35b6002818051602081018201805184825260208301602085012081835280955050505050506000915054906101000a900473ffffffffffffffffffffffffffffffffffffffff1681565b60008073ffffffffffffffffffffffffffffffffffffffff1660028360405161025c919061105c565b908152602001604051809103902060009054906101000a900473ffffffffffffffffffffffffffffffffffffffff1673ffffffffffffffffffffffffffffffffffffffff1614156102e2576040517f08c379a00000000000000000000000000000000000000000000000000000000081526004016102d99061111e565b60405180910390fd5b6002826040516102f2919061105c565b908152602001604051809103902060009054906101000a900473ffffffffffffffffffffffffffffffffffffffff169050919050565b6000803373ffffffffffffffffffffffffffffffffffffffff1673ffffffffffffffffffffffffffffffffffffffff16815260200190815260200160002060010160149054906101000a900460ff16156103b7576040517f08c379a00000000000000000000000000000000000000000000000000000000081526004016103ae9061115e565b60405180910390fd5b600081805190602001209050600083336040516020016103d89291906110b0565b604051602081830303815290604052805190602001209050808214610432576040517f08c379a00000000000000000000000000000000000000000000000000000000081526004016104299061113e565b60405180910390fd5b60405180606001604052808581526020013373ffffffffffffffffffffffffffffffffffffffff168152602001600115158152506000803373ffffffffffffffffffffffffffffffffffffffff1673ffffffffffffffffffffffffffffffffffffffff16815260200190815260200160002060008201518160000190805190602001906104c0929190610b96565b5060208201518160010160006101000a81548173ffffffffffffffffffffffffffffffffffffffff021916908373ffffffffffffffffffffffffffffffffffffffff16021790555060408201518160010160146101000a81548160ff02191690831515021790555090505083604051610539919061105c565b60405180910390203373ffffffffffffffffffffffffffffffffffffffff167ff2cf81766a66ece12adca2351aaa6ecd2e42f556e21e56e935adccea099b238860405160405180910390a350505050565b60606000808373ffffffffffffffffffffffffffffffffffffffff1673ffffffffffffffffffffffffffffffffffffffff16815260200190815260200160002060010160149054906101000a900460ff1661061a576040517f08c379a00000000000000000000000000000000000000000000000000000000081526004016106119061119e565b60405180910390fd5b6000808373ffffffffffffffffffffffffffffffffffffffff1673ffffffffffffffffffffffffffffffffffffffff1681526020019081526020016000206000018054610666906112f6565b80601f0160208091040260200160405190810160405280929190818152602001828054610692906112f6565b80156106df5780601f106106b4576101008083540402835291602001916106df565b820191906000526020600020905b8154815290600101906020018083116106c257829003601f168201915b50505050509050919050565b600160009054906101000a900473ffffffffffffffffffffffffffffffffffffffff1673ffffffffffffffffffffffffffffffffffffffff163373ffffffffffffffffffffffffffffffffffffffff161461077b576040517f08c379a00000000000000000000000000000000000000000000000000000000081526004016107729061117e565b60405180910390fd5b8060028360405161078c919061105c565b908152602001604051809103902060006101000a81548173ffffffffffffffffffffffffffffffffffffffff021916908373ffffffffffffffffffffffffffffffffffffffff1602179055505050565b6000803373ffffffffffffffffffffffffffffffffffffffff1673ffffffffffffffffffffffffffffffffffffffff16815260200190815260200160002060010160149054906101000a900460ff1661086a576040517f08c379a00000000000000000000000000000000000000000000000000000000081526004016108619061119e565b60405180910390fd5b6000818051906020012090506000833360405160200161088b9291906110b0565b6040516020818303038152906040528051906020012090508082146108e5576040517f08c379a00000000000000000000000000000000000000000000000000000000081526004016108dc9061113e565b60405180910390fd5b836000803373ffffffffffffffffffffffffffffffffffffffff1673ffffffffffffffffffffffffffffffffffffffff168152602001908152602001600020600001908051906020019061093a929190610b96565b5083604051610949919061105c565b60405180910390203373ffffffffffffffffffffffffffffffffffffffff167f14716808395dfa019c19deae82e0ec66681341a925930ed341aa2c5be01c9f6760405160405180910390a350505050565b60008060003373ffffffffffffffffffffffffffffffffffffffff1673ffffffffffffffffffffffffffffffffffffffff16815260200190815260200160002060010160149054906101000a900460ff16610a2a576040517f08c379a0000000000000000000000000000000000000000000000000000000008152600401610a219061119e565b60405180910390fd5b6000803373ffffffffffffffffffffffffffffffffffffffff1673ffffffffffffffffffffffffffffffffffffffff16815260200190815260200160002060010160009054906101000a900473ffffffffffffffffffffffffffffffffffffffff16905090565b600160009054906101000a900473ffffffffffffffffffffffffffffffffffffffff1681565b6000602052806000526040600020600091509050806000018054610ada906112f6565b80601f0160208091040260200160405190810160405280929190818152602001828054610b06906112f6565b8015610b535780601f10610b2857610100808354040283529160200191610b53565b820191906000526020600020905b815481529060010190602001808311610b3657829003601f168201915b5050505050908060010160009054906101000a900473ffffffffffffffffffffffffffffffffffffffff16908060010160149054906101000a900460ff16905083565b828054610ba2906112f6565b90600052602060002090601f016020900481019282610bc45760008555610c0b565b82601f10610bdd57805160ff1916838001178555610c0b565b82800160010185558215610c0b579182015b82811115610c0a578251825591602001919060010190610bef565b5b509050610c189190610c1c565b5090565b5b80821115610c35576000816000905550600101610c1d565b5090565b6000610c4c610c47846111ef565b6111be565b905082815260208101848484011115610c6457600080fd5b610c6f8482856112b4565b509392505050565b6000610c8a610c858461121f565b6111be565b905082815260208101848484011115610ca257600080fd5b610cad8482856112b4565b509392505050565b600081359050610cc481611397565b92915050565b600082601f830112610cdb57600080fd5b8135610ceb848260208601610c39565b91505092915050565b600082601f830112610d0557600080fd5b8135610d15848260208601610c77565b91505092915050565b600060208284031215610d3057600080fd5b6000610d3e84828501610cb5565b91505092915050565b600060208284031215610d5957600080fd5b600082013567ffffffffffffffff811115610d7357600080fd5b610d7f84828501610cf4565b91505092915050565b60008060408385031215610d9b57600080fd5b600083013567ffffffffffffffff811115610db557600080fd5b610dc185828601610cf4565b9250506020610dd285828601610cb5565b9150509250929050565b60008060408385031215610def57600080fd5b600083013567ffffffffffffffff811115610e0957600080fd5b610e1585828601610cf4565b925050602083013567ffffffffffffffff811115610e3257600080fd5b610e3e85828601610cca565b9150509250929050565b610e5181611276565b82525050565b610e6081611288565b82525050565b6000610e718261124f565b610e7b818561125a565b9350610e8b8185602086016112c3565b610e9481611386565b840191505092915050565b6000610eaa8261124f565b610eb4818561126b565b9350610ec48185602086016112c3565b80840191505092915050565b6000610edd601b8361125a565b91507f446f6d61696e206973206e6f742061757468656e7469636174656400000000006000830152602082019050919050565b6000610f1d60268361125a565b91507f446f6d61696e206f776e65727368697020636f756c64206e6f7420626520766560008301527f72696669656400000000000000000000000000000000000000000000000000006020830152604082019050919050565b6000610f8360198361125a565b91507f446f6d61696e20616c72656164792072656769737465726564000000000000006000830152602082019050919050565b6000610fc360358361125a565b91507f4f6e6c792074686520636f6e74726163744f776e65722063616e20617574686560008301527f6e746963617465206120646f6d61696e206e616d6500000000000000000000006020830152604082019050919050565b600061102960158361125a565b91507f446f6d61696e206e6f74207265676973746572656400000000000000000000006000830152602082019050919050565b60006110688284610e9f565b915081905092915050565b60006020820190506110886000830184610e48565b92915050565b600060208201905081810360008301526110a88184610e66565b905092915050565b600060408201905081810360008301526110ca8185610e66565b90506110d96020830184610e48565b9392505050565b600060608201905081810360008301526110fa8186610e66565b90506111096020830185610e48565b6111166040830184610e57565b949350505050565b6000602082019050818103600083015261113781610ed0565b9050919050565b6000602082019050818103600083015261115781610f10565b9050919050565b6000602082019050818103600083015261117781610f76565b9050919050565b6000602082019050818103600083015261119781610fb6565b9050919050565b600060208201905081810360008301526111b78161101c565b9050919050565b6000604051905081810181811067ffffffffffffffff821117156111e5576111e4611357565b5b8060405250919050565b600067ffffffffffffffff82111561120a57611209611357565b5b601f19601f8301169050602081019050919050565b600067ffffffffffffffff82111561123a57611239611357565b5b601f19601f8301169050602081019050919050565b600081519050919050565b600082825260208201905092915050565b600081905092915050565b600061128182611294565b9050919050565b60008115159050919050565b600073ffffffffffffffffffffffffffffffffffffffff82169050919050565b82818337600083830152505050565b60005b838110156112e15780820151818401526020810190506112c6565b838111156112f0576000848401525b50505050565b6000600282049050600182168061130e57607f821691505b6020821081141561132257611321611328565b5b50919050565b7f4e487b7100000000000000000000000000000000000000000000000000000000600052602260045260246000fd5b7f4e487b7100000000000000000000000000000000000000000000000000000000600052604160045260246000fd5b6000601f19601f8301169050919050565b6113a081611276565b81146113ab57600080fd5b5056fea2646970667358221220c490ddace2683ce6b6613228e0beaf24f4df4d8d60add2f01434bff5636abf0b64736f6c63430008000033",
  "linkReferences": {},
  "deployedLinkReferences": {}
}